:020000040800F2
:1000000070060020290200086D1100085D0E00082E
:100010006B1100082F030008911200080000000077
:10002000000000000000000000000000ED110008CA
:1000300031030008000000006F110008EF110008F4
:10004000430200084302000843020008430200087C
:10005000430200084302000843020008430200086C
:10006000430200084302000843020008430200085C
:10007000430200084302000843020008430200084C
:10008000430200084302000843020008430200083C
:10009000430200084302000843020008430200082C
:1000A000430200084302000843020008430200081C
:1000B000430200084302000843020008430200080C
:1000C00043020008430200084302000843020008FC
:1000D00043020008430200084302000843020008EC
:1000E00043020008430200084302000843020008DC
:1000F00043020008430200084302000843020008CC
:1001000043020008430200084302000843020008BB
:1001100043020008430200084302000843020008AB
:10012000430200084302000843020008430200089B
:10013000430200084302000843020008430200088B
:10014000430200084302000843020008430200087B
:10015000430200084302000843020008430200086B
:10016000430200084302000843020008430200085B
:100170004302000843020008430200080000000098
:10018000430200084302000800F002F800F03CF8C7
:100190000AA090E8000C82448344AAF10107DA45E2
:1001A00001D100F031F8AFF2090EBAE80F0013F0F8
:1001B000010F18BFFB1A43F001031847001200009B
:1001C00020120000103A24BF78C878C1FAD852072C
:1001D00024BF30C830C144BF04680C6070470000C1
:1001E0000023002400250026103A28BF78C1FBD840
:1001F000520728BF30C148BF0B6070471FB501F0E0
:10020000B7F81FBD10B510BD00F058F81146FFF744
:10021000F5FF01F04FF800F076F803B4FFF7F2FFB6
:1002200003BC00F07DF800000948804709480047FA
:10023000FEE7FEE7FEE7FEE7FEE7FEE7FEE7FEE796
:10024000FEE7FEE704480549054A064B70470000F3
:10025000811200088901000870000020700600204B
:1002600070020020700200204FF0000200B513461B
:1002700094469646203922BFA0E80C50A0E80C50C6
:10028000B1F12001BFF4F7AF090728BFA0E80C5077
:1002900048BF0CC05DF804EB890028BF40F8042B70
:1002A00008BF704748BF20F8022B11F0804F18BFDD
:1002B00000F8012B7047704770477047754600F093
:1002C0002BF8AE4605006946534620F007008546E8
:1002D00018B020B5FFF7B6FFBDE820404FF000068C
:1002E0004FF000074FF000084FF0000B21F007011E
:1002F000AC46ACE8C009ACE8C009ACE8C009ACE861
:10030000C0098D46704710B50446AFF30080204603
:10031000BDE81040FFF781BF004870471000002083
:1003200001491820ABBEFEE7260002007047FEE739
:100330007047000070B5044600F022F90546601CC5
:1003400002D004480078044400F01AF9401BA0428F
:10035000FAD370BD000000202DE9F04FDFF8EC91DA
:1003600000220127A9F1040B85B003254FF00F0CE3
:1003700009F1040AABF1040EE0E000BF07FA02F451
:1003800016EA04037ED00E7906F00306012E01D092
:10039000022E1FD186680096560005FA06F80496CC
:1003A000009E26EA08060096D1F80C80049E08FA02
:1003B00006F8009E48EA0608C0F80880466891F8EA
:1003C0000480A643C8F3001808FA02F848EA0608B1
:1003D000C0F80480D1F804806FEA0806B6070AD195
:1003E000C66AA643C8F3C00494403443C4620C797F
:1003F000E443A4070AD0C4684FEA420805FA08F6A5
:10040000B4438E6806FA08F62643C6600C7904F0F9
:100410000304022C11D1D40800EB84060296D6F80E
:1004200020805407E60E0CFA06F428EA04080C694A
:10043000B440029E44EA08043462046856000296FE
:1004400005FA06F6B4430E7906F00308029E08FA90
:1004500006F848EA0408C0F800804C6814F4403FED
:100460006BD03B4C266E46F001062666246E22F0C9
:10047000030604F001040094364C34440294A4684A
:10048000960700E059E04FEA16780CFA08F6B443F4
:10049000B0F1904F04D0304EB04203D101261BE0A2
:1004A000002619E02D4EB04201D1022614E02C4E58
:1004B000B04201D103260FE02A4EB04201D10426FA
:1004C0000AE0294EB04201D1052605E0274EB04290
:1004D00001D1062600E0072606FA08F62643029C0C
:1004E000A660D9F800404E46D1F804809C435FEAEC
:1004F000C82800D51C433460DAF800405646D1F8CD
:1005000004809C435FEA882800D51C433460DBF8F4
:1005100000405E46D1F804809C435FEA883800D5ED
:100520001C433460DEF800407646D1F804809C43DA
:100530005FEAC83800D51C433460521C0B681E4665
:10054000D3407FF41BAF05B000F012B8080401409F
:10055000001002400000014000040048000800486C
:10056000000C004800100048001400480018004823
:1005700030BCBDE8C08F0AB18161704781627047AD
:100580000148806870470000000000200248816830
:10059000027811448160704700000020094810B5BE
:1005A0000168002441F480710160032000F064F8C8
:1005B000002000F009F808B1012401E000F026F85D
:1005C000204610BD0020024070B50E4E05460024A6
:1005D000307898B14FF47A71B1FBF0F00A490968AC
:1005E000B1FBF0F000F026FC40B9102D06D200223D
:1005F0002946501E00F020F8756000E001242046D6
:1006000070BD0000000000200C000020094808B563
:10061000016E41F001010166016E01F001010091DE
:10062000816D41F080518165806D00F080500090B7
:1006300008BD000000100240F0B40E4B1B680C46D1
:10064000C3F30223C3F10705042D00D90425191DA6
:10065000072901D2002300E0DB1E012606FA05F17E
:10066000491E214099409E40761E16403143F0BC01
:1006700000F00FBE0CED00E0064900F0070208682C
:100680004FF6FF03184040EA0220034A1043086077
:10069000704700000CED00E00000FA051649B0F5C7
:1006A000007F0868C0F3412009D0022805D00868FF
:1006B00020F4C06040F4806008600020704701288A
:1006C000FBD0086820F4C06040F4007008600B485C
:1006D0003222006850430A4AB0FBF2F0401C00E0AE
:1006E000401E4A69520501D50028F9D148694005E4
:1006F000E3D5032070470000007000400C0000208C
:1007000040420F000248006800F4C06070470000DB
:10071000007000400248016841F480710160704738
:10072000007000400248016841F004010160704718
:10073000001002402DE9F0470F4605006BD0494EEE
:10074000306800F00700B84209D2306820F0070096
:1007500038433060306800F00700B8425BD1287839
:10076000414C80070AD5A868A16801F0F0018842D1
:1007700004D9A16821F0F0010143A1602878C007E5
:100780002CD06868032811D0022812D0216898B1B3
:10079000490500293FDAA16821F003010143A16066
:1007A000FFF7EEFE804641F2883910E021688901AA
:1007B000EFE721688903ECE78907EAE7FFF7E0FE46
:1007C000A0EB0801494502D90320BDE8F087A068E5
:1007D000696800F00C00B0EB810FEFD1287880073A
:1007E0000AD5A868A16801F0F001884204D2A16886
:1007F00021F0F0010143A160306800F00700B84229
:100800000BD9306820F0070038433060306800F0C2
:100810000700B84201D00120D7E72878400705D566
:10082000A068E96820F4E0600843A0602878000729
:1008300006D5A068296920F4605040EAC100A06094
:1008400000F01AF8A168094AC1F30311515C01F0E4
:100850001F01C8400649086006480068BDE8F04727
:10086000FFF7B2BE00200240001002407C130008D7
:100870000C0000200400002070B525490023184614
:100880008A68CC6812F00C0204F00306214C4FEA8F
:10089000640509D00C2A05D0042A32D0082A00D1D8
:1008A000284670BD012E10D10B681B0704D4D1F867
:1008B0009430C3F3032302E00B68C3F30313164E13
:1008C00056F82330DAB10C2AEBD1C86800F00300E7
:1008D000022818D0032818D01846CA68CB68C2F37B
:1008E0000212C3F306234343521CB3FBF2F2C8685F
:1008F000C0F34160401C4000B2FBF0F070BD1846F0
:1009000070BD204670BD2046E7E72846E5E70000B9
:10091000001002400024F4008C1300082DE9F84375
:1009200004006FD0FD4DA86800F00C06E86800F0E8
:1009300003072078C00664D576B10C2E01D1012FB3
:100940000AD0A069002828687AD040F00100286009
:10095000FFF716FE80465DE02868800702D5A06993
:100960000028DED0216A2868000703D5286800F037
:10097000F00004E0D5F89400F02202EA1010814261
:1009800016D9084600F0F4FB00283BD1286840F057
:10099000080028602868216A20F0F00008432860D9
:1009A0006868E16920F47F4040EA0120686016E051
:1009B000286840F0080028602868216A20F0F000CC
:1009C000084328606868E16920F47F4040EA01201C
:1009D000686026B9206A00F0CBFB0028D5D1FFF76C
:1009E0004BFFA968CE4AC1F30311515C01F01F010E
:1009F000C840CC490860CC480068FFF7E5FD0028F6
:100A00007ED12EE0CAE000BFFFF7BAFDA0EB0800E0
:100A1000022876D828688007F6D5286840F00800B4
:100A200028602868216A20F0F00008432860686880
:100A3000E16920F47F4040EA0120686011E0FFE7AF
:100A400020F001002860FFF79BFD804606E000BF14
:100A5000FFF796FDA0EB08000228DAD82868800787
:100A6000F6D42078C00740D0082E18D00C2E01D123
:100A7000032F14D06068B0F5803F17D0B0F5A02FD9
:100A8000286817D020F480302860286820F480205F
:100A900028606068E0B1FFF773FD804614E02868C5
:100AA000800322D56068002878D01EE0286840F4D2
:100AB0008030EDE740F480202860F7E7FFF760FD25
:100AC000A0EB08006428A4D828688003F6D50CE0C1
:100AD000FFF756FD804605E0FFF752FDA0EB08004A
:100AE000642896D828688003F6D4207880073BD500
:100AF000042E11D00C2E01D1022F0DD0E06801E0A0
:100B000086E1D6E0002828681ED040F48070286076
:100B1000FFF736FD07460CE0286840050CD5E06875
:100B20000028C1D008E000BFFFF72AFDC01B022843
:100B300093D828684005F7D56868217C20F0F850E4
:100B400040EA016068600FE020F480702860FFF7E1
:100B500017FD074605E000BFFFF712FDC01B022886
:100B6000B1D828684005F7D42078000729D56069F6
:100B70000028D5F8940012D040F00100C5F8940088
:100B8000FFF7FEFC074604E0FFF7FAFCC01B022853
:100B900099D8D5F894008007F6D512E000E120F04E
:100BA0000100C5F89400FFF7EBFC074605E000BF25
:100BB000FFF7E6FCC01B02287BD8D5F8940080071D
:100BC000F6D42078400766D5A86D0027C00008D469
:100BD000A86D40F08050A865A86D012700F08050F6
:100BE000009052480168C90512D40168814641F459
:100BF00080710160FFF7C4FC804605E0FFF7C0FC90
:100C0000A0EB0800022854D8D9F80000C005F5D59B
:100C1000A068012816D00528D5F8900017D020F03C
:100C20000100C5F89000D5F8900020F0040000BF46
:100C3000C5F89000A06841F28839C0B1FFF7A0FC68
:100C400080460FE0D5F8900040F00100F0E740F05A
:100C50000400C5F89000F5E7FFF792FCA0EB08014F
:100C6000494526D8D5F890008007F5D50EE0FFF766
:100C700087FC804606E000BFFFF782FCA0EB08017E
:100C8000494516D8D5F890008007F5D41FB1A86D56
:100C900020F08050A865A06AF0B302280AD00C2E7C
:100CA0007ED0286820F080702860FFF769FC044639
:100CB000B0E0ACE0E868E26A00F00301914229D1BB
:100CC000216B00F0700209011039914222D1626B50
:100CD00000F4FE41B1EB022F1CD1A26B00F40031F5
:100CE000072A01D0012200E00022914212D1A18FF7
:100CF00000F4C00249084905A1F50011914209D14B
:100D000094F8401000F0C06049084906A1F1007154
:100D100081425ED00C2E0BE072E000000010024019
:100D20007C1300080C00002004000020007000402C
:100D300079D02868400176D42868C00073D4286828
:100D400020F080702860FFF71BFC064605E000BF1E
:100D5000FFF716FC801B022859D828688001F7D4B9
:100D6000D4E90B016FF00F0202EB01110843A18FD0
:100D70005204490802EB4151626B41EA02210843E7
:100D800094F840104FF07E42490802EB416108435D
:100D9000A16B090940EA4140E968244A114000E09A
:100DA00041E00843E860286840F080702860E86807
:100DB00040F08070E860FFF7E3FB044605E000BF09
:100DC000FFF7DEFB001B022821D828688001F7D539
:100DD00027E02868800124D4286840F080702860CB
:100DE000E86840F08070E860FFF7CAFB044604E062
:100DF000FFF7C6FB001B022809D828688001F7D539
:100E00000FE000BFFFF7BCFB001B022802D9032044
:100E1000BDE8F88328688001F4D4E86804490840F4
:100E2000E8600020F4E70120F2E700008C809DF9E3
:100E3000FCFFEEFE10B5401EB0F1807F01D3012013
:100E400010BD4FF0E02460610F21601700F021FA1F
:100E50000020A06107202061002010BDFEE70000F7
:100E60002DE9F04F87B014216846FFF7FDF9B84827
:100E7000C16C41F01001C164C16C01F01001059119
:100E8000C16C41F00401C164C16C01F00401059121
:100E9000C16C41F08001C164C16C01F08001059119
:100EA000C16C41F00101C164C16C01F00101059107
:100EB000C16C41F00201C164C16C01F002010591F5
:100EC000C16C41F00801C164C06C002200F0080050
:100ED00005904AF209119F48FFF74DFB00220C21B3
:100EE0009D48FFF748FB012251029C48FFF743FB56
:100EF00000224FF400619948FFF73DFB002280215A
:100F00009748FFF738FBF420009001A90220002445
:100F1000032581E831000D20049069468D48FFF7D4
:100F20001BFA082000900120CDE901040220039063
:100F300069468848FFF710FA4FF41050C601CDE912
:100F40000006694602948548FFF706FA4FF0070A43
:100F5000CDE900A4694681480294FFF7FDF94FF4FA
:100F6000FC7000900220CDE901040B27CDE9034776
:100F700069467A48FFF7F0F92F20CDE900040220F6
:100F800002906946B002FFF7E7F91020CDE90006AC
:100F900069460294B002FFF7DFF948F2C070009092
:100FA0000220CDE90104CDE903476946B002FFF70D
:100FB000D3F94FF2332000900220CDE90104CDE9AE
:100FC000034769466448FFF7C7F901204FF004085A
:100FD000CDE90080CDE9020569465F48FFF7BCF91D
:100FE0004FF4807000900120CDE902050190694620
:100FF0005848FFF7B1F94FF4007000900220CDE996
:1010000001040D20CDE9034069465248FFF7A4F9D9
:101010004FF4B840009001AA02204FF00A0982E87C
:10102000310269464B48FFF797F94FF42040009092
:101030000120CDE90104039069464648FFF78CF989
:10104000A8024FF0120BCDE9000B02AA012082E8A2
:10105000210169464048FFF77FF94FF47F40009037
:101060000220CDE90104CDE9034769463C48FFF77A
:1010700073F94FF4206000900120CDE90104694626
:1010800036480394FFF768F9E802009001AA0220AD
:1010900082E831026946B002FFF75EF90527009742
:1010A000CDE9016469462E48FFF756F91A200090F1
:1010B00001AA022082E8B10069462948FFF74CF9ED
:1010C000602000900220019002AA012082E8210401
:1010D00069462348FFF740F98020009001AA0120CB
:1010E00082E8310069461E48FFF736F90820009073
:1010F0000120CDE90104694617480394FFF72CF954
:10110000C020CDE9000B02AA012082E82101694636
:101110001148FFF721F94FF48070CDE900066946C8
:1011200002940D48FFF718F901200090CDE9010461
:10113000694608480394FFF70FF90220CDE900063D
:10114000694602940348FFF707F907B000F00AB8B0
:101150000010024000100048000400480008004849
:10116000000C004830BCBDE8C08FFEE7FEE77047CA
:10117000F8B51C4D06460024A86DC00002D5FFF747
:10118000C1FA0DE0A86D40F08050A865A86D00F090
:1011900080500090FFF7B6FAA96D21F08051A96543
:1011A000B0F5007F04D0802E07D94FF003040AE089
:1011B000802E08D9A02E01D804E001D1022402E03B
:1011C000702E00D101240848016821F00701214355
:1011D0000160006800F00700A04201D00120F8BDC6
:1011E0000020F8BD00100240002002407047FFF7C9
:1011F000CDB9000010B596B044216846FFF734F829
:10120000142111A8FFF730F84FF40070FFF746FAE9
:1012100008B172B6FEE7FFF77DFA184850F8901F44
:1012200021F0180101601420009001200290002498
:1012300060210690CDE907410221CDE90A100C900A
:1012400028200D900720CDE90E0168461091FFF788
:1012500065FB08B172B6FEE70F2011900320CDE9BF
:1012600012041494042111A81594FFF763FA08B12D
:1012700072B6FEE7FFF756FA16B010BD0010024036
:101280000248016841F470010160704788ED00E098
:10129000FEE70907090E002804DB00F1E02080F8D2
:1012A0000014704700F00F0000F1E02080F8141DDA
:1012B00070470000BCB0FFF771F9FFF79BFFFFF725
:1012C000CFFD0E4F6D467E031E244FF03C080020DC
:1012D000A04202D145F8207001E045F82060401C92
:1012E0003C28F5DB684600F00BF8641C94FBF8F131
:1012F00008FB1144FA20FFF71DF8E8E70000FFEFB4
:1013000070B50546002000F00FF8002455F82400C1
:1013100000F00AF8641C3C2CF8DBBDE870404FF08C
:10132000FF3000F001B800002DE9F0410F4F0546F5
:1013300000244FF400484FF40056002D01DA01223A
:1013400000E0002241463846FFF715F901223146F8
:101350003846FFF710F9002231463846FFF70BF9FF
:101360006D00641C202CE8DBBDE8F0810010004813
:101370004FF04070E1EE100A7047000000000000DE
:10138000000000000102030406070809A08601000E
:10139000400D0300801A060000350C0040420F008B
:1013A00080841E0000093D0000127A000024F40031
:1013B00000366E010048E801006CDC02DC13000816
:1013C0000000002010000000C4010008EC13000819
:1013D0001000002060060000E0010008010000008D
:0C13E000100000000000000000093D00AB
:040000050800018965
:00000001FF
